:020000040800F2
:10000000A00B002001010008CB1E0008B31C000853
:10001000C91E0008750800085D24000800000000E3
:10002000000000000000000000000000BD1F0008EC
:10003000BB08000800000000CD1E0008BF1F00081C
:100040001B0100081B0100081B0100081B01000820
:100050001B0100081B0100081B0100081B01000810
:10006000BD0800081B0100081B0100081B01000857
:1000700079080008850800081B0100081B0100081A
:100080001B0100081B0100081B0100081B010008E0
:100090001B0100081B0100081B0100081B010008D0
:1000A0001B0100081B0100081B0100081B010008C0
:1000B0001B0100081B0100081B0100081B010008B0
:1000C0001B0100081B0100081B0100081B010008A0
:1000D0001B010008092400081B0100081524000862
:1000E0001B0100081B0100081B010008DFF80CD0F1
:1000F00000F048F900480047E1280008A00B002064
:100100000648804706480047FEE7FEE7FEE7FEE7B1
:10011000FEE7FEE7FEE7FEE7FEE7FEE72120000838
:10012000ED000008202A04DB203A21FA02F0002129
:10013000704721FA02F3D040C2F1200291400843F7
:100140001946704740EA01039B0703D009E008C93C
:10015000121F08C0042AFAD203E011F8013B00F88C
:10016000013B521EF9D27047D2B201E000F8012BD8
:10017000491EFBD270470022F6E710B513460A4627
:1001800004461946FFF7F0FF204610BDCBB203E04E
:100190000178994203D0401C521EF9D200207047CA
:1001A00080EA010210B502F00043400022D04A006C
:1001B0001FD0010E01EB1261C0F35600C2F35602CC
:1001C00040F4000042F40002A0FB022000047F394A
:1001D000140400D0401C50EA124001D44000491ED3
:1001E000C2B20C0604EBD010401C4008802A02D09A
:1001F00003E0002010BD20F00100002900DA0020FB
:10020000184310BD30B480EA010202F0004530F01E
:10021000004221F0004013D090B1C30DD40DC2F3C1
:100220001601C0F31600E41A41F4000140F4000284
:100230007D34914201D3641C00E04900002C02DAB5
:1002400030BC002070474FF400000023914201D3DE
:10025000891A034340084FEA4101F7D151B1914255
:1002600002D14FF0004105E002D24FF0010101E060
:100270006FF0010103EBC450284430BC00F04BB8D0
:10028000420005D0C0F3C7525242914201DC002027
:10029000704700EBC1507047C10F80EAE07008441E
:1002A000CA079623002100F03FB89623002211468A
:1002B00000F03AB82DE9F05F0546002092469B46D3
:1002C00088460646814640241BE02846414647466C
:1002D0002246FFF727FF53465A46C01A914110D3D2
:1002E00011461846224600F05FF82D1A67EB010808
:1002F0004F4622460120002100F056F817EB000976
:100300004E41201EA4F10104DFDC484631462A4656
:100310004346BDE8F09F0029A8BF7047401C490034
:1003200008BF20F00100704710B4B0FA80FC00FA5A
:100330000CF050EA010404BF10BC704749B1CCF185
:10034000200421FA04F411FA0CF118BF0121214311
:100350000843A3EB0C01CB1D4FEA00614FEA1020CC
:1003600042BF002010BC704700EBC350104400296E
:10037000A4BF10BC7047401C490008BF20F001001A
:1003800010BC7047064C074D06E0E06840F00103E2
:1003900094E8070098471034AC42F6D3FFF7AAFE62
:1003A000602C0008802C0008202A04DB203A00FA88
:1003B00002F1002070479140C2F1200320FA03F3BC
:1003C0001943904070470000F0B51EA386B0D3E9F2
:1003D0000043CDE900431D4C6E46637803F00705EA
:1003E0000023F75CAF4201D1037003E05B1CDBB27A
:1003F000052BF6D316A302ADD3E90003CDE9020322
:100400006079C0F3021300202E5C9E4201D1087077
:1004100003E0401CC0B20428F6D30F4904ABD1E975
:100420000201CDE90401607900F0070100201C5CA5
:100430008C4202D1107006B0F0BD401CC0B204283E
:10044000F5D3F8E70605040302000000860100204A
:100450000001020304050600242C000870B500F01A
:10046000B5F8204D1E205021287095206870D420AA
:10047000A870EC20E870002028716971A971E971F9
:1004800029722C466972A972E17221736073A0739C
:10049000E07320746074A074E0742075202161758D
:1004A000A075E0751722611C012000F0BDF90A203B
:1004B00002F0EAF918222946002000F05FF82078BF
:1004C00000F01F002070002421462A5D06A001F0E4
:1004D000C7FF641CE4B2182CF6D3BDE870400820B6
:1004E00000F0B6B886010020414453313239395FFB
:1004F0007265675B307825785D203D2030782578FF
:10050000200D0A002DE9F84306466420174A0090A2
:100510001B23A2F11E01164801F00AF81548002419
:10052000124F00786FF00709FFF7BFFEDFF8488031
:10053000054600BF04EB4400C01CC0B2384400684C
:1005400000BA20F0FF00FFF7A7FE4946FFF798FE2C
:100550004146FFF725FE2946FFF754FE46F82400E2
:10056000641CE4B2082CE5D3BDE8F88368010020E0
:10057000FC030020080000208351093F70B5144699
:10058000104A2030104E1070601E50700D46002230
:100590000821304600F02AFC0A4902221E3109488F
:1005A00000F04AF81E210748FFF7E5FD22462946DC
:1005B000044800F041F83046BDE8704001220821AF
:1005C00000F014BC4A0100200008014010B5184C8E
:1005D00001220821204600F009FC002210212046BB
:1005E00000F004FC134C01221146204600F0FEFBF3
:1005F00001220221204600F0F9FBC82002F044F954
:1006000000220121204600F0F1FB0A2002F03CF913
:1006100001221146204600F0E9FB322002F034F9B5
:10062000112000F025F8BDE810400A2000F020B8A5
:1006300000080140000C014008B50A23009313464E
:100640000A460146014800F073FF08BDFC03002084
:10065000064910B5C861084600F0D8FE002803D04E
:10066000BDE8104000F042B910BD0000FC030020BE
:1006700070B50A4D044600220821284600F0B6FB5A
:100680000748012200F11E010470FFF7D5FF28463C
:10069000BDE870400122082100F0A8BB000801401D
:1006A0004A0100207FB5394C04280BD838A5D5E97C
:1006B0000035CDE9003563781DF8000003F0F8033C
:1006C0000343637006291BD833A3D3E90003CDE9A4
:1006D00000031DF8016000202518401C6B79C0B292
:1006E00003F08F0343EA06136B710828F4D32CA39D
:1006F000D3E90003CDE9020302A8405C2A4908704F
:10070000022A12D82949D1E90001CDE900011DF8DA
:10071000025000202218401C5179C0B201F0F803A9
:1007200045EA030151710828F4D32820FFF790FF10
:10073000012002F0A9F81120FFF79AFF0A20FFF725
:1007400097FF012002F0A0F81922611C012000F09F
:100750006BF8012002F098F81A220C490020FFF7EC
:100760000DFF2078002500F01F002070625D2946F3
:100770000FA001F075FE6D1CEDB2192DF6D304B07B
:100780000820BDE87040FFF763BF0000860100202D
:100790000605040302000000000102030405060030
:1007A00001020406080C180008000020242C000890
:1007B000616473313239395F7265675B30782578EF
:1007C0005D203D2030782578200D0A0010B51E21CF
:1007D0000948FFF7D0FC1020FFF74AFF074C012221
:1007E0001021204600F002FB20460022BDE8104008
:1007F000082100F0FBBA00004A0100200008014077
:1008000010B51120FFF734FF064C002210212046BE
:1008100000F0ECFA20460122BDE81040082100F06B
:10082000E5BA00000008014070B514460F4A403098
:100830000F4E1070601E50700D4600220821304689
:1008400000F0D4FA094902221E310848FFF7F4FEED
:10085000064922461E312846FFF7EEFE3046BDE827
:1008600070400122082100F0C1BA00004A010020B6
:1008700000080140FEE70000014800F0A9B80000B0
:100880003C050020014800F0A3B80000F804002057
:1008900030B590F840500124AC40C56B6C600468E2
:1008A00063604368102B036803D099600068C260DE
:1008B00030BD9A600068C16030BD7047084810B50F
:1008C000007838B10748FFF71DFE20220549064889
:1008D00001F0A7FFBDE81040042000F08BB9000034
:1008E0000000002080050020A001002072B6FEE775
:1008F00010B590F821100022022905D0042181634F
:1009000080F82020012010BD01680B6823F00E0341
:100910000B6001680B6823F001030B6090F8403016
:10092000C46B012101FA03F3636080F8211080F8A1
:100930002020104610BD000010B590F821100024B2
:10094000022903D00421816301243DE001680A6883
:1009500022F00E020A6001680A6822F001020A60B1
:100960001A4A0168914201D1012121E0174A14324B
:10097000914201D110211BE0144A2832914201D149
:10098000891515E0114A3C32914201D189140FE0DA
:100990000E4A5032914202D14FF4803108E00B4AA6
:1009A0006432914202D14FF4801101E04FF0807126
:1009B000064A083A5160012180F82110002180F890
:1009C0002010416B01B18847204610BD080002404D
:1009D0002DE9F05FC16B0C6801680B68D0F840C06E
:1009E000042202FA0CF2494DDFF824A1494E4A4F85
:1009F000DFF828B1DFF828E122422CD05A072AD5A7
:100A00000A68920603D40A6822F004020A600168A8
:100A1000A94201D1042219E0514501D1402215E03B
:100A2000B14202D14FF4806210E0B94202D14FF4DA
:100A300080420BE0594502D14FF4802206E0714517
:100A400002D14FF4800201E04FF080622F49083953
:100A50004A60C16A3BE04FF0020808FA0CF818EA55
:100A6000040F4FF000094FF0010235D05FEA8378A0
:100A700032D50B689B0605D40B6823F00A030B6084
:100A800080F821200168A94201D1022219E05145D4
:100A900001D1202215E0B14202D14FF4007210E0E2
:100AA000B94202D14FF400520BE0594502D14FF444
:100AB000003206E0714502D14FF4001201E04FF020
:100AC0000072124908394A6080F82090816A002932
:100AD0001AD0BDE8F05F0847082505FA0CF5254255
:100AE00012D01B0710D50B6823F00E030B6090F893
:100AF0004010C36B02FA01F15960826380F8212033
:100B000080F82090016BE2E7BDE8F09F080002400A
:100B10001C000240300002404400024058000240E5
:100B20006C00024030B528B308C813491422194498
:100B3000B1FBF2F18900C163104981630221417761
:100B40001A6843F6F0718A43D0E900142143D0E9D2
:100B500002452C43214304692143446921438469AC
:100B6000214311431960002141630122427701773B
:100B7000084630BD012030BDF8FFFDBF0000024037
:100B800070B5044690F82000002501280CD0012003
:100B900084F8200094F821600020012E06D084F80B
:100BA00020000225284670BD022070BD022684F870
:100BB0002160A0632068066826F0010606602046D2
:100BC000FFF766FEE06A00282068016802D041F065
:100BD0000E0106E021F0040101602068016841F087
:100BE0000A0101602068016841F001010160D9E754
:100BF00070470000044910B50A68024202D008603C
:100C0000FFF7F6FF10BD0000140401402DE9F84F76
:100C1000DFF8B8910024A9F1040B23460F2709F14E
:100C2000040AABF1040EC9E00125A5402A40AA42FE
:100C30007DD1674ED1F804C0ACEB0608B44532D084
:100C400014DCBCF1030F3AD009DCBCF1000F2AD050
:100C5000BCF1010F1CD0BCF1020F31D11DE0BCF181
:100C6000110F17D0BCF1120F2AD119E0B8F5881F67
:100C700019D006DCB8F5803F15D0B8F5801F1FD11C
:100C800011E0B8F5001F0ED0B8F5041F18D10AE026
:100C9000CB6815E0CB681B1D12E0CB6808330FE072
:100CA000CB680C330CE08B682BB1012B4FF00803A1
:100CB00003D0456104E0042302E0056100E0002365
:100CC000FF2A01D8064601E000F104064FEA840538
:100CD00001D9A5F12005D6F8008007FA05FC28EA1D
:100CE0000C0803FA05F548EA0508C6F800804D68C7
:100CF000ED0062D5374DAE6946F00106AE61AD69D3
:100D000024F0030605F001050095334D06EB050CB4
:100D1000DCF80850A607360F07FA06F825EA08059A
:100D2000DFF8B880404503D14FF0000817E044E0F9
:100D3000DFF8AC80404502D14FF001080FE0DFF84A
:100D4000A480404502D14FF0020808E0DFF8988007
:100D5000404502D14FF0030801E04FF0040808FAC3
:100D600006F848EA0508CCF808804D68D9F8006014
:100D7000ED024D4601D5164300E096432E604D68C6
:100D8000DAF80060AD02554601D5164300E09643FF
:100D90002E604D68DBF80060AD035D4601D516435B
:100DA00000E096432E604D68DEF80060ED03754666
:100DB00001D5164300E096432E60641C0D682A4658
:100DC000E5407FF431AFBDE8F88F00000804014032
:100DD0000000111000100240000001400008014016
:100DE000000C014000100140001401400AB10161F3
:100DF00070470904FBE70000014880687047000065
:100E00000C0000200248816802781144816070471C
:100E10000C000020074810B5016841F01001016086
:100E2000032000F075F80F2000F006F800F024F819
:100E3000002010BD0020024070B50D4D04464FF457
:100E40007A712878B1FBF0F00A490968B1FBF0F03B
:100E500000F066FC48B9102C07D200222146501E33
:100E600000F036F800206C6070BD012070BD0000FD
:100E70000C000020180000200C4808B5816941F0E2
:100E800001018161816901F001010091C16941F0B5
:100E90008051C161C06900F08050009004484168F1
:100EA00021F0E06141F00071416008BD0010024096
:100EB00000000140002809DB00F01F0201219140E1
:100EC0004009800000F1E020C0F8001170470000E8
:100ED000F0B40E4B1B680C46C3F30223C3F10705A5
:100EE000042D00D90425191D072901D2002300E093
:100EF000DB1E012606FA05F1491E214099409E405D
:100F0000761E16403143F0BC01F0BABA0CED00E099
:100F1000064900F0070208684FF6FF03184040EA50
:100F20000220034A10430860704700000CED00E007
:100F30000000FA052DE9F0470F46050061D0434E49
:100F4000306800F00700B84209D2306820F007008E
:100F500038433060306800F00700B84251D128684B
:100F60003B4C810712D5400703D5606840F4E06030
:100F700060602878000703D5606840F460506060C6
:100F80006068A96820F0F000084360602878C00716
:100F900028D06868012810D02168022810D089075D
:100FA00000292EDA616821F0030101436160FFF737
:100FB00023FF804641F288390DE021688903EFE77D
:100FC0008901EDE7FFF718FFA0EB0801494502D9B9
:100FD0000320BDE8F0876068696800F00C00B0EBA2
:100FE000810FEFD1306800F00700B8420BD93068AC
:100FF00020F0070038433060306800F00700B84246
:1010000001D00120E5E72878400705D56068E96848
:1010100020F4E060084360602878000706D5606827
:10102000296920F4605040EAC100606000F038F89F
:101030006168084AC1F30311515CC8400649086061
:1010400006480068FFF7F8FE0020C2E700200240D3
:1010500000100240452C000818000020100000205D
:101060000448054900684968044AC1F30221515CFB
:10107000C84070471800002000100240552C00089E
:101080000448054900684968044AC1F3C221515C1B
:10109000C84070471800002000100240552C00087E
:1010A0000E4A51680E4801F00C03042B11D0082B96
:1010B0000FD10C48C1F38343C903C05C0AD5516802
:1010C000084AC1F34041921E515C054A5043B0FBAF
:1010D000F1F0704704494843704700000010024097
:1010E00000127A00352C000800093D002DE9F84F68
:1010F000040070D02078C04DC00749D06868C0F3A4
:101100008100012807D06868C0F38100022809D156
:101110006868C00306D52868800339D56068002850
:10112000E7D035E06068B0F5803F0BD010B1B0F586
:10113000A02F11D0286820F480302860286820F47F
:10114000802002E0286840F480302860606890B118
:10115000FFF752FE06460AE0286840F48020286027
:10116000F0E700BFFFF748FE801B642873D82868AB
:101170008003F7D50CE0FFF73FFE064605E000BF11
:10118000FFF73AFE801B6428F0D828688003F7D464
:1011900020789A4E80074FF001094FF0000839D5AA
:1011A000686810F00C0F07D06868C0F3810002284F
:1011B00009D16868C00306D42868800714D520695F
:1011C000012808D110E02069B0B1C6F80090FFF7FF
:1011D00013FE074605E00AE1FFF70EFEC01B0228DA
:1011E000C4D828688007F7D52868616920F0F8001E
:1011F00040EAC10028600DE0C6F80080FFF7FCFD62
:10120000074604E0FFF7F8FDC01B022823D8286832
:101210008007F7D4207800072CD57948A169D9B187
:10122000C0F80090FFF7E8FD074604E0FFF7E4FD93
:10123000C01B02280FD8686A8007F7D571484FF4A1
:10124000FA510068B0FBF1F0009000BF0098411E19
:101250000091FAD20EE080E0C0F80080FFF7CCFDEC
:10126000074604E0FFF7C8FDC01B022875D8686A6E
:101270008007F7D42078400760D5E8690027C000D0
:1012800008D4E86940F08050E861E869012700F07F
:10129000805000905C480168C90513D401688346FA
:1012A00041F480710160FFF7A7FD824606E000BFB0
:1012B000FFF7A2FDA0EB0A0064284ED8DBF800007F
:1012C000C005F5D5E06801280AD008B1052813D07B
:1012D000286A20F001002862286A20F0040002E059
:1012E000286A40F001002862E06841F2883B98B12A
:1012F000FFF782FD82460BE0286A40F00400286276
:10130000EEE700BFFFF778FDA0EB0A0159455AD878
:10131000286A8007F6D50CE0FFF76EFD824605E0EF
:10132000FFF76AFDA0EB0A0159454CD8286A8007EF
:10133000F6D41FB1E86920F08050E861E06988B315
:101340006968C1F38101022944D00228C6F860808F
:1013500004D0FFF751FD044638E034E0FFF74CFDC0
:10136000074604E0FFF748FDC01B02282BD8286879
:101370008001F7D4206AB0F5803F05D16868A16884
:1013800020F4003008436860D4E908010843696824
:1013900021F4741108436860C6F86090FFF72CFDD3
:1013A000044606E025E000BFFFF726FD001B0228EB
:1013B00009D828688001F7D51BE000BFFFF71CFDA6
:1013C000001B022802D90320BDE8F88F286880019D
:1013D000F4D40EE00128F7D06868226A00F4803166
:1013E000914204D1616A00F47010884201D001205A
:1013F000EAE70020E8E70000001002400000424257
:1014000080044242180000200070004070B50400C3
:1014100009D0606A002540B125616561A56294F834
:10142000510040B10CE0012070BD6068B0F5827FD2
:10143000F4D0E561F2E784F85050204600F040F81F
:10144000022084F851002068016821F04001016009
:10145000A088218900F4827001F404410843A18925
:1014600001F400610843217C01F002010843217D61
:1014700001F001010843218B01F400710843217F31
:1014800001F03801084394F8201001F0800108436E
:10149000218D01F40051084321680860A0690421EE
:1014A00001EA1040216848602068C16921F40061A8
:1014B000C1616565012084F85100002070BD000005
:1014C00030B585B000240094019402940394006820
:1014D0001449884223D11448816941F480518161C3
:1014E000816901F480510491816941F004018161B5
:1014F00080690E4D00F004000490A02000900220AE
:1015000001900320039069462846FFF77FFB4020A7
:10151000CDE90004694628460294FFF777FB05B041
:1015200030BD0000003001400010024000080140C2
:101530002DE9FF4F81B01D46934604464FF0010947
:101540000E9EFFF759FC074694F851006168012888
:1015500006D0B1F5827F3CD1A168C9BB042838D13F
:101560000298002871D0BBF1000FFBD0002DF9D0FC
:1015700094F8500001282CD04FF0010A84F850A0B4
:1015800094F85100042802D0052084F851004FF04F
:101590000008C4F85480C4F838B0E587A5870299DC
:1015A0002163E586A586C4F84080C4F8448020689D
:1015B0000168490603D4016841F040010160E06818
:1015C000B0F5006F606808D0F0B3012D49D081E01C
:1015D000FFE7022005B0BDE8F08F08B1012D39D139
:1015E000206B21680088C860206B801C2063E08E1F
:1015F000401EE0862EE02068816889070FD5E18EC5
:1016000069B1B9F1010F0AD1216B0988C160206B62
:10161000801C2063E08E401EE0864FF000092068A9
:101620008168C9070CD0E18F51B1C068A16B0880F7
:10163000A06B801CA063E08F401EE0874FF0010983
:10164000FFF7DAFBC01B01E00BE067E0B04201D31B
:10165000701C50D1E08E0028CDD1E08F0028CAD177
:101660003EE0206B216800780873206B401C2063EB
:10167000E08E401EE0862DE02068816889070FD546
:10168000E18E69B1B9F1010F0AD1216B09780173BB
:10169000206B401C2063E08E401EE0864FF0000966
:1016A00020688168C9070CD0E18F51B1C068A16B77
:1016B0000870A06B401CA063E08F401EE0874FF0D5
:1016C0000109FFF799FBC01BB04202D3701C01D087
:1016D00011E086B1E08E0028CED1E08F0028CBD17A
:1016E0003A463146204600F0F2FB50B120206065BA
:1016F00084F8508012E084F851A084F850800320D0
:1017000068E7A06818B92068C1688068009084F80C
:1017100051A084F85080606D0028F1D0012059E775
:1017200010B5401EB0F1807F01D3012010BD4FF0F5
:10173000E02460610F21601700F0A2FE0020A0618C
:1017400007202061002010BD704710B504460068D6
:10175000406994F84110C0F3C010212911D180B123
:101760002068143050E8001F21F0800140E800128A
:10177000002AF5D1A06B08B1FFF7BAF8204600F0B7
:10178000F6FC2068406994F84210C0F380102229CA
:1017900011D180B12068143050E8001F21F04001C1
:1017A00040E80012002AF5D1E06B08B1FFF7A0F87D
:1017B000204600F0B5FC002010BD7047F8B5016868
:1017C00004460868CA684B6910F00F0F4FF0000517
:1017D00059D003F0010602F49077374365D0C10772
:1017E00005D0D10503D5616C41F001016164410769
:1017F00005D5D90703D0616C41F00201616481070E
:1018000005D5D90703D0616C41F00401616401077B
:1018100007D502F02001314303D0616C41F008018B
:101820006164616C00293AD0800604D5900602D527
:10183000204600F0AAFC20684069616CC0F380106B
:10184000090700D460B3204600F06AFC20684069B4
:10185000400621D52068143050E8001F21F04001D7
:1018600040E80012002AF5D1E06BA8B16D49416350
:10187000E06BFFF761F8002811D0E06B416B01B01D
:10188000BDE8F040084783060FD593060DD52046E6
:10189000BDE8F84000F079BC2046FFF78EFFF8BDA8
:1018A0002046FFF78AFF6564F8BD266B2023012ED2
:1018B0007CD1C6067AD5D60678D5086848680090E7
:1018C00048694FF00206400640D5E16B0868406861
:1018D0000004000CE8D0A28D8242E5D9E085886939
:1018E00020282DD020680C3050E8001F21F4807192
:1018F00040E80012002AF5D12068143050E8001F9B
:1019000021F0010140E80012002AF5D120681430CE
:1019100050E8001F21F0400140E80012002AF5D1F4
:1019200084F84230256320680C3050E8001F21F015
:10193000100140E80012002AF5D1E06BFEF7D8FF55
:101940006663A08DE18D401A81B22AE0A08DE18D01
:10195000401A81B2E08D0028A6D00029A4D02268C8
:101960000C3252E8000F20F4907042E80007002F7C
:10197000F5D12068143050E8002F22F0010240E831
:101980000027002FF5D184F84230256320680C3001
:1019900050E8002F22F0100240E80023002BF5D180
:1019A00066632046FFF7D0FEF8BDFFE705062BD59E
:1019B000150629D594F841002128F5D1A068B0F585
:1019C000805F01D12069B0B1206A411C2162216889
:1019D00000784860E08C401E0004000CE084E3D1F5
:1019E0002068C16821F08001C1602068C16841F0B1
:1019F0004001C160D8E7206A0088C0F30800486051
:101A0000206A801C2062E5E74006CDD55006CBD584
:101A1000CA68204622F04002CA6084F8413000F0D3
:101A200047F9C1E72320000870B5040004D094F8FA
:101A30004100002510B106E0012070BD84F840503F
:101A4000204600F023F8242084F841002068C16873
:101A500021F40051C160204600F0F8FB20680169C4
:101A600021F4904101612068416921F02A0141611E
:101A70002068C16841F40051C1606564202084F889
:101A8000410084F842006563002070BD2DE9F047F5
:101A900086B00024009401940294039406460368DF
:101AA0004C4F02204C49032245024FF00108BB4233
:101AB0002ED18B6943F480438B618B6903F480439F
:101AC00004938B6943F004038B618969434E01F0F1
:101AD000040104910102CDE90010039269463046E9
:101AE000FFF794F8CDE90054694630460294FFF7B9
:101AF0008DF8002211462520FFF7EAF92520FFF78F
:101B0000D9F9CDE9005469463046CDF808805BE04C
:101B1000334FBB425AD1CB6943F48023CB61CB69AD
:101B200003F4802304938B6943F008038B61896974
:101B3000DFF8B0A001F00801CDE90321CDE90050A4
:101B4000694655465046FFF761F84FF40069CDE904
:101B50000094694628460294FFF758F8234D22481E
:101B60008027C5E90004C5E902472C616C61AC61BE
:101B70002846EC61FEF7D6FF08B1FEF7B7FEF56325
:101B80006E621A4D18484435143801C5102091C5AD
:101B9000164845F8104944306C61AC61EC61FEF7C1
:101BA000C1FF08B1FEF7A2FEB56300220321272082
:101BB0006E62FFF78DF92720FFF77CF9CDF80090D2
:101BC000CDE9014869465046FFF720F806B0BDE868
:101BD000F08700000038014000100240000801407A
:101BE00000480040000C014030000240F804002092
:101BF00090F84230202B01D00220704721B11AB159
:101C00000023036300F07EBB0120704770477047DC
:101C10002DE9F843044690F84100984616460D46D3
:101C2000202802D00220BDE8F88385B17EB10020D3
:101C30006064212084F84100FFF7DEF8A684814625
:101C4000E684A0682027B0F5805F02D003E0012081
:101C5000E9E7206910B12E4600250EE000260CE0D1
:101C60008021204600F096FBA8B9C6B116F8010BFA
:101C700021684860E08C401EE084E08C4B464FF0C9
:101C80000002CDF800800028EAD14FF04001204644
:101C900000F080FB40B184F841700320C3E735F8C1
:101CA000020BC0F30800E3E784F841700020BAE7B4
:101CB0007047FEE70D4808B5416941F001014161F7
:101CC0004069002200F00100009011460C20FFF74F
:101CD000FFF80C20FFF7EEF8002211460D20FFF769
:101CE000F7F8BDE808400D20FFF7E4B80010024007
:101CF0002DE9F04385B00024394800940194029402
:101D00000394816941F010018161816901F0100142
:101D10000491816941F020018161816901F0200114
:101D20000491816941F004018161816901F004013C
:101D30000491816941F0080181618069294F00F0B7
:101D400008004FF400550490002229463846FFF75A
:101D50004DF8DFF89480002218214046FFF746F83E
:101D6000DFF88890002203214846FFF73FF80095EE
:101D7000022601250396CDE9015469463846FEF74F
:101D800045FF042000901A48CDE901046946404609
:101D9000FEF73CFF0820CDE90005CDE90246694683
:101DA0004046FEF733FF10200327CDE90005CDE9BB
:101DB000024769464046FEF729FF00970396CDE9A2
:101DC000015469464846FEF721FF002211460820CB
:101DD000FFF77EF80820FFF76DF805B0BDE8F08347
:101DE000001002400010014000080140000C0140BA
:101DF00000002110104810B50E4901604FF48271A7
:101E00004160002181600122C160C0E904125202D8
:101E100082612822C0E90721416281620A21C162F0
:101E2000FFF7F4FA002803D0BDE81040FEF75EBDCE
:101E300010BD000000300140FC0300200C4810B52C
:101E40000A4901600B494160002181600C22C16098
:101E5000C0E904128161C161FFF7E6FD002803D0EB
:101E6000BDE81040FEF742BD10BD00000038014043
:101E70006804002040420F0010B5114C0F480C219F
:101E80002060104860600020A060E060C4E90401A8
:101E9000A061E0612046FFF7C7FD08B1FEF726FD0F
:101EA0002068C16841F01001C16005491422BDE8F5
:101EB00010405C390248FFF79BBE0000004800401C
:101EC000B004002040420F00FEE7FEE77047F8B57F
:101ED00015460E460B46009204460122022100F0F0
:101EE00011F840B93346002280212046009500F0C9
:101EF00009F8002804D0606D40F0200060650320E0
:101F0000F8BD00002DE9F8431E4691468846044678
:101F1000089DFEF771FF401B351AFEF76DFF07465F
:101F200025480068C0F3CB30684338E0701C37D0D8
:101F3000FEF762FFC01BA84203D215B1009860B340
:101F40002CE02068416821F0E00141606068B0F554
:101F5000827F0BD1A068B0F5004F02D0B0F5806F42
:101F600004D12068016821F040010160A06AB0F549
:101F7000005F09D12068016821F4005101602068E8
:101F8000016841F400510160012084F851000020F3
:101F900084F850000320BDE8F8830025401E00901F
:101FA0002068816838EA010004D000214945BDD18C
:101FB0000020F0E70121F9E7180000207047FEF744
:101FC00021BF30B58FB028216846FEF7D4F8142120
:101FD0000AA8FEF7D0F801210804CDE9001000247A
:101FE000029402250491CDE907504FF4E0100990C6
:101FF0006846FFF77BF808B172B6FEE70F20CDE91F
:102000000A054FF48060CDE90C4002210AA80E9425
:10201000FEF790FF002801D072B6FEE70FB030BD8A
:10202000704710B5406A0021C185C184FFF7C5FB28
:1020300010BD70B5446A2068406994F84110C0F33F
:10204000C0100025212904D118B1E584204600F0F4
:102050008EF82068406994F84210C0F3801022295D
:1020600004D118B1E585204600F05AF8606C40F0C4
:10207000100060642046FFF7A0FB70BD10B501465C
:10208000406A096809684FF0000289062ED4C285AB
:1020900001680C3151E8003F23F4807341E80034BB
:1020A000002CF5D10168143151E8003F23F0010301
:1020B00041E80034002CF5D10168143151E8003FAB
:1020C00023F0400341E80034002CF5D1202180F8B2
:1020D0004210016B012909D101680C3151E8003F20
:1020E00023F0100341E80034002CF5D14263016B6A
:1020F000012902D0FFF78AFD10BD818DFFF724FB77
:1021000010BD10B5406A01214163016B012902D065
:10211000FFF77DFD10BD818D4908FFF715FB10BD50
:1021200001680C3151E8002F22F4907241E800233D
:10213000002BF5D10168143151E8002F22F0010283
:1021400041E80023002BF5D1016B012909D1016879
:102150000C3151E8002F22F0100241E80023002B3F
:10216000F5D1202180F842100021016370470168F9
:102170000C3151E8002F22F0C00241E80023002B6F
:10218000F5D1202180F84110704708B590F8421031
:10219000222901D0022008BD82684FF480539A4260
:1021A00001D1016921B1816A9A421BD04AB10AE08A
:1021B0000268816A5268C2F308020A80816A891C37
:1021C00008E0026972B10268526802F07F020A7088
:1021D000816A491C8162C18D491E0904090CC185AF
:1021E00003D01BE002685268F1E70168CA6822F078
:1021F0002002CA600168CA6822F48072CA6001685D
:102200004A6922F001024A61202180F8421000212F
:102210004163026B012A03D0FFF7F8FC002008BDE0
:10222000016301680C3151E8002F22F0100241E8EF
:102230000023002BF5D101680A68D20602D50A688E
:1022400049680091818DFFF77FFAE7E770B5044692
:1022500000680169E26821F440511143016121697C
:10226000A0680843616908432168CA6841F20C63A9
:102270009A430243CA6020684169A26921F440710F
:10228000114341611E492068884202D1FEF7F8FEE1
:1022900001E0FEF7E5FE00EBC00101EB0012606813
:1022A00064218000B2FBF0F3B3FBF1F36FF018068A
:1022B0007343B2FBF0F5B2FBF0F605EB8305322376
:1022C00003EB0515B5FBF1F5B6FBF1F605F0F005EE
:1022D00005EB0615B2FBF0F6B2FBF0F0B0FBF1F047
:1022E0006FF01802504306EB800003EB0010B0FBC8
:1022F000F1F0216800F00F002844886070BD0000F4
:102300000038014038B581620446828500201346BA
:102310006064222284F84220E56B1B4AAA62E56BC6
:102320001A4AEA62E56B1A4A2A63E26B50630A466C
:102330002168E06B091DFEF723FC206801684068F6
:102340000090206948B120680C3050E8001F41F42B
:10235000807140E80012002AF5D12068143050E85E
:10236000001F41F0010140E80012002AF5D1206869
:10237000143050E8001F41F0400140E80012002AEC
:10238000F5D1002038BD00007D20000803210008A1
:10239000332000082DE9F843984617460D460446B9
:1023A000089E24E0701C22D0FEF726FDA0EB08005A
:1023B000B0421AD8CEB12068C168490717D5802D20
:1023C00015D0402D13D00168C94309070FD4016807
:1023D0000025406800902046FFF7A2FE08206064B8
:1023E00084F840500120BDE8F8830320FBE7206813
:1023F000006835EA000004D00020B842D2D00020A6
:10240000F1E70120F9E700000148FFF7D7B9000024
:10241000680400200D4808B500680168C1F3001188
:1024200079B10168406800900848FFF78EF90848C4
:10243000006840680749C0F114000870064901208F
:102440000870BDE808400148FFF7B8B9B0040020A3
:10245000F8040020090000200A000020FEE7000028
:102460000FB4054B10B503A9044A029800F028F8F0
:1024700010BC5DF814FB0000C92800081C000020F7
:102480000907090E002804DB00F1E02080F80014A1
:10249000704700F00F0000F1E02080F8141D704735
:1024A00002E008C8121F08C1002AFAD1704770471D
:1024B000002001E001C1121F002AFBD1704700007B
:1024C0002DE9FF4F8DB09B460F460446002606E0DF
:1024D00025280BD05A460F999047641C761C20780B
:1024E0000028F5D111B03046BDE8F08F0025A84690
:1024F0000122984900E0054314F8013F203B02FA0D
:1025000003F00842F7D120782E2817D114F8010FD4
:1025100045F004052A280ED06FF02F022078A0F194
:10252000300109290AD808EB880102EB410100EBD0
:102530000108641CF2E757F8048B641C20786C28AF
:102540000DD004DC4C2812D06A2811D104E0742884
:102550000DD07A280CD10AE045F4001507E0617827
:1025600045F48015814202D1641C05F58015641C78
:102570002278692A45D008DC002AB3D0582A69D0CD
:10258000632A10D0642A08D13BE0702A67D0732AEE
:1025900013D0752A5CD0782A5CD010465A460F9921
:1025A0009047761CD3E017F8040B8DF8000000204C
:1025B0008DF80100E946012003E057F8049B4FF035
:1025C000FF3069074FF0000501D40AE06D1C454556
:1025D0000DDA8542FADB19F805100029F6D106E07C
:1025E0006D1C8542FCDB19F805100029F8D12E443A
:1025F00004E019F8010B5A460F9990476D1EF8D266
:10260000A5E00A200021CDE90801C5F30250022807
:102610000DD001CFC117031E71F100030DDA4FF089
:10262000000CD0EB0C006CEB01012D2308E0FF1D2A
:1026300027F00707F7E80201EDE72B0504D52B2368
:102640008DF8283001233BE0EB0739D02023F7E752
:102650000A2000E010200021CDE9080107E0102049
:10266000002145F00405CDE908014FF00808C5F345
:10267000025002280FD001CF00214FF0000A2B0793
:102680001FD5702A0DD0DDE908C38CF0100C5CEA70
:10269000030C0CD015E0FF1D27F00707F7E8020137
:1026A000EBE740228DF828204FF0010A0BE050EABA
:1026B000010306D030238DF828308DF8292002231D
:1026C0009A46582A04D024A20DF120090B9209E061
:1026D00026A2F9E7DDE90823FDF7ECFD0B9B9B5CE7
:1026E00009F8013D50EA0102F4D1ADEB09002030B8
:1026F0000890680701D44FF001080899884502DD69
:10270000A8EB010000E000208046002506E00AA8B2
:102710005A46405D0F9990476D1C761C5545F6DB77
:1027200004E030205A460F999047761CB8F100011A
:10273000A8F10108F5DC05E019F8010B5A460F99DC
:102740009047761C0899481E08900029F4DC641C08
:10275000C5E6000009280100303132333435363700
:1027600038396162636465660000000030313233DD
:10277000343536373839414243444546000000007D
:1027800070B515460246A5201870A81C58709A709E
:102790005040D8701C462A46181DFDF7D3FC5A201D
:1027A00061196D1D0871E8B270BD70B504460D4623
:1027B000084600F01DF92060002805D0A580002003
:1027C000E08020816081012070BD2DE9F041044648
:1027D000408988461546A84202D20020BDE8F08113
:1027E0002689A088801B87B22068BD4200EB0601C5
:1027F00001D8404607E03A464046FDF7A3FCEA1BF5
:1028000008EB07002168FDF79DFCA1887019B0FB5B
:10281000F1F201FB120020816089401B60810120E0
:10282000DCE72DE9F0410446884680886189154639
:10283000411AA94202DA0020BDE8F081E688801B37
:1028400087B22068BD42304401D8414607E03A468D
:102850004146FDF777FCEA1B08EB07012068FDF70E
:1028600071FCA1887019B0FBF1F201FB1200E0804D
:102870006089284460810120DEE70000014908608A
:1028800070470000040000204FF47A71484300F0C4
:1028900001B8000070B54FF0E024002265690949D5
:1028A000A36909684843A1699942FCD002D2A3EB0D
:1028B000010302E0A5EB010633441A440B468242B1
:1028C000F1D370BD0400002013B54FF6FF73012251
:1028D00069460248FFF79CF900981CBD6804002077
:1028E0002DE9F047FEF796FAFFF76BFB4820FFF75C
:1028F000C5FFFFF7FDF9FFF7DDF9FFF77BFAFFF7FB
:102900009DFAFFF7B9FAFDF7A9FD4FF4C871274802
:10291000FFF74BFFB0B126484FF40051027825482D
:102920001E2A16D05FF00102FEF760FA224D234CFA
:10293000234E1E4F4FF000084FF6FF7928780128EC
:1029400009D019E01FA0FFF78BFD4FF0FF30BDE865
:10295000F0870022E8E785F800802178214800F020
:102960009BF821781F48FDF706FC84F800801422AC
:102970001C491D48FFF73CF930780128DED17889E1
:10298000C028DBD9C02219490848FFF71EFF074BB2
:10299000C0220C3315491120FFF7F2FE034902460D
:1029A0004B460C311048FFF733F9C7E7A001002070
:1029B00086010020001001400A00002009000020CC
:1029C0000000002063697263756C61725F627566F6
:1029D0006665725F696E6974206661696C21200AA0
:1029E0000000000054040020B00400203C0300203C
:1029F000F0B50B30154D20F007010024144A0FE00C
:102A000003688B420BD38B4205D95E1A4318476883
:102A1000C3E9006700E04368136002C004E0021DE0
:102A200010680028ECD12046002802D1286808B19F
:102A30000020F0BD064A07481060074A121A22F02B
:102A40000702C0E9002401202860D7E72400002005
:102A500020000020A4050020A007002070B54178C8
:102A6000802902D10A4A81785170057800F1230348
:102A700007491C460122491C2846FFF781FE2146D2
:102A8000BDE8704002464FF6FF730248FFF7C0B83A
:102A900000000020B004002070B50D4604462A4610
:102AA000AA212046FDF772FB00281CD04178C91CE2
:102AB000CAB2062A12D3841814F8011CBB2904D008
:102AC000441C09A0FFF7CCFCE9E7921FD3B2C678FB
:102AD0008178021D304600F01DF8E0E7BDE8704047
:102AE00006A0FFF7BDBC70BD6672616D6520656EA6
:102AF00064206572726F72200D0A00006672616D4B
:102B00006520686561646572206572726F72200D60
:102B10000A00000070B504461048154680F82230BF
:102B20004170047023B11A462946801CFDF70AFB48
:102B3000092C08D0102C0BD0112C0ED1BDE8704000
:102B4000064800F00DB8BDE870400448FFF786BFA6
:102B5000BDE87040014800F03BB870BD280000207F
:102B600010B504460BA0FFF77BFC6078802810D1DD
:102B7000A07818B10124FDF729FE02E00024FDF73A
:102B80003FFE0C4821460470BDE810400AA0FFF744
:102B900067BC10BD6F726465725F73616D706C6548
:102BA0005F636F6E74726F6C5F63616C6C626163A4
:102BB0006B0D0A000000002073616D706C655F731F
:102BC0007461747573203D2025640D0A00000000B7
:102BD00070B50446407880280AD1A07804281DD812
:102BE000E17806291AD82279022A17D8FDF75AFD6A
:102BF000221DE11CA01CFDF7E7FB04F12303207854
:102C00001D460322A11CFFF7BBFD2946BDE870400D
:102C100002464FF6FF730248FEF7FABF70BD000090
:102C2000B0040020000105000000000000010500C4
:102C3000000000010202030405060708090A0B0C44
:102C40000D0E0F1010000000000000000001020334
:102C50000406070809000000000102030400000048
:102C6000802C00080000002028000000A02400089C
:102C7000A82C000828000020780B0000B0240008D1
:102C800000000000000000000C0000000100000037
:102C9000100000000000000000127A000000000098
:082CA00000000000000000002C
:04000005080000ED02
:00000001FF
